{
  "contractName": "ChainList",
  "abi": [
    {
      "constant": true,
      "inputs": [],
      "name": "articleCounter",
      "outputs": [
        {
          "name": "",
          "type": "uint256"
        }
      ],
      "payable": false,
      "stateMutability": "view",
      "type": "function"
    },
    {
      "constant": true,
      "inputs": [],
      "name": "owner",
      "outputs": [
        {
          "name": "",
          "type": "address"
        }
      ],
      "payable": false,
      "stateMutability": "view",
      "type": "function"
    },
    {
      "constant": true,
      "inputs": [
        {
          "name": "",
          "type": "uint256"
        }
      ],
      "name": "articles",
      "outputs": [
        {
          "name": "id",
          "type": "uint256"
        },
        {
          "name": "seller",
          "type": "address"
        },
        {
          "name": "buyer",
          "type": "address"
        },
        {
          "name": "name",
          "type": "string"
        },
        {
          "name": "description",
          "type": "string"
        },
        {
          "name": "price",
          "type": "uint256"
        }
      ],
      "payable": false,
      "stateMutability": "view",
      "type": "function"
    },
    {
      "anonymous": false,
      "inputs": [
        {
          "indexed": true,
          "name": "_id",
          "type": "uint256"
        },
        {
          "indexed": true,
          "name": "_seller",
          "type": "address"
        },
        {
          "indexed": false,
          "name": "_name",
          "type": "string"
        },
        {
          "indexed": false,
          "name": "_price",
          "type": "uint256"
        }
      ],
      "name": "SellArticleEvent",
      "type": "event"
    },
    {
      "anonymous": false,
      "inputs": [
        {
          "indexed": true,
          "name": "_id",
          "type": "uint256"
        },
        {
          "indexed": true,
          "name": "_seller",
          "type": "address"
        },
        {
          "indexed": true,
          "name": "_buyer",
          "type": "address"
        },
        {
          "indexed": false,
          "name": "_name",
          "type": "string"
        },
        {
          "indexed": false,
          "name": "_price",
          "type": "uint256"
        }
      ],
      "name": "BuyArticleEvent",
      "type": "event"
    },
    {
      "constant": false,
      "inputs": [
        {
          "name": "_name",
          "type": "string"
        },
        {
          "name": "_description",
          "type": "string"
        },
        {
          "name": "_price",
          "type": "uint256"
        }
      ],
      "name": "sellArticle",
      "outputs": [],
      "payable": false,
      "stateMutability": "nonpayable",
      "type": "function"
    },
    {
      "constant": true,
      "inputs": [],
      "name": "getNumberOfArticles",
      "outputs": [
        {
          "name": "",
          "type": "uint256"
        }
      ],
      "payable": false,
      "stateMutability": "view",
      "type": "function"
    },
    {
      "constant": true,
      "inputs": [],
      "name": "getArticlesForSale",
      "outputs": [
        {
          "name": "",
          "type": "uint256[]"
        }
      ],
      "payable": false,
      "stateMutability": "view",
      "type": "function"
    },
    {
      "constant": false,
      "inputs": [
        {
          "name": "_id",
          "type": "uint256"
        }
      ],
      "name": "buyArticle",
      "outputs": [],
      "payable": true,
      "stateMutability": "payable",
      "type": "function"
    },
    {
      "constant": false,
      "inputs": [],
      "name": "kill",
      "outputs": [],
      "payable": false,
      "stateMutability": "nonpayable",
      "type": "function"
    }
  ],
  "bytecode": "0x6080604052336000806101000a81548173ffffffffffffffffffffffffffffffffffffffff021916908373ffffffffffffffffffffffffffffffffffffffff160217905550610e3c806100536000396000f30060806040526004361061008e576000357c0100000000000000000000000000000000000000000000000000000000900463ffffffff1680630953ae17146100935780631cc4baa8146100be57806341c0e1b5146100de5780637f6be3da146100f557806389da85d3146101615780638da5cb5b1461018c578063d2609515146101e3578063edcfafe61461029c575b600080fd5b34801561009f57600080fd5b506100a8610422565b6040518082815260200191505060405180910390f35b6100dc60048036038101908080359060200190929190505050610428565b005b3480156100ea57600080fd5b506100f3610717565b005b34801561010157600080fd5b5061010a6107ac565b6040518080602001828103825283818151815260200191508051906020019060200280838360005b8381101561014d578082015181840152602081019050610132565b505050509050019250505060405180910390f35b34801561016d57600080fd5b5061017661096a565b6040518082815260200191505060405180910390f35b34801561019857600080fd5b506101a1610974565b604051808273ffffffffffffffffffffffffffffffffffffffff1673ffffffffffffffffffffffffffffffffffffffff16815260200191505060405180910390f35b3480156101ef57600080fd5b5061029a600480360381019080803590602001908201803590602001908080601f0160208091040260200160405190810160405280939291908181526020018383808284378201915050505050509192919290803590602001908201803590602001908080601f016020809104026020016040519081016040528093929190818152602001838380828437820191505050505050919291929080359060200190929190505050610999565b005b3480156102a857600080fd5b506102c760048036038101908080359060200190929190505050610bbf565b604051808781526020018673ffffffffffffffffffffffffffffffffffffffff1673ffffffffffffffffffffffffffffffffffffffff1681526020018573ffffffffffffffffffffffffffffffffffffffff1673ffffffffffffffffffffffffffffffffffffffff1681526020018060200180602001848152602001838103835286818151815260200191508051906020019080838360005b8381101561037b578082015181840152602081019050610360565b50505050905090810190601f1680156103a85780820380516001836020036101000a031916815260200191505b50838103825285818151815260200191508051906020019080838360005b838110156103e15780820151818401526020810190506103c6565b50505050905090810190601f16801561040e5780820380516001836020036101000a031916815260200191505b509850505050505050505060405180910390f35b60025481565b60008060025411151561043a57600080fd5b60008211801561044c57506002548211155b151561045757600080fd5b60016000838152602001908152602001600020905060008160020160009054906101000a900473ffffffffffffffffffffffffffffffffffffffff1673ffffffffffffffffffffffffffffffffffffffff161415156104b557600080fd5b3373ffffffffffffffffffffffffffffffffffffffff168160010160009054906101000a900473ffffffffffffffffffffffffffffffffffffffff1673ffffffffffffffffffffffffffffffffffffffff161415151561051457600080fd5b34816005015414151561052657600080fd5b338160020160006101000a81548173ffffffffffffffffffffffffffffffffffffffff021916908373ffffffffffffffffffffffffffffffffffffffff1602179055508060010160009054906101000a900473ffffffffffffffffffffffffffffffffffffffff1673ffffffffffffffffffffffffffffffffffffffff166108fc349081150290604051600060405180830381858888f193505050501580156105d3573d6000803e3d6000fd5b508060020160009054906101000a900473ffffffffffffffffffffffffffffffffffffffff1673ffffffffffffffffffffffffffffffffffffffff168160010160009054906101000a900473ffffffffffffffffffffffffffffffffffffffff1673ffffffffffffffffffffffffffffffffffffffff16837f933d1098c688ba47d0f2b5d4d9eb8616d0cb2a68998c45ea3f35df12fb9d6def84600301856005015460405180806020018381526020018281038252848181546001816001161561010002031660029004815260200191508054600181600116156101000203166002900480156107045780601f106106d957610100808354040283529160200191610704565b820191906000526020600020905b8154815290600101906020018083116106e757829003601f168201915b5050935050505060405180910390a45050565b6000809054906101000a900473ffffffffffffffffffffffffffffffffffffffff1673ffffffffffffffffffffffffffffffffffffffff163373ffffffffffffffffffffffffffffffffffffffff1614151561077257600080fd5b6000809054906101000a900473ffffffffffffffffffffffffffffffffffffffff1673ffffffffffffffffffffffffffffffffffffffff16ff5b606080600080606060008060025414156107f85760006040519080825280602002602001820160405280156107f05781602001602082028038833980820191505090505b509550610962565b6002546040519080825280602002602001820160405280156108295781602001602082028038833980820191505090505b50945060009350600192505b600254831115156108de5760006001600085815260200190815260200160002060020160009054906101000a900473ffffffffffffffffffffffffffffffffffffffff1673ffffffffffffffffffffffffffffffffffffffff1614156108d157600160008481526020019081526020016000206000015485858151811015156108ba57fe5b906020019060200201818152505083806001019450505b8280600101935050610835565b8360405190808252806020026020018201604052801561090d5781602001602082028038833980820191505090505b509150600090505b8381101561095e57848181518110151561092b57fe5b90602001906020020151828281518110151561094357fe5b90602001906020020181815250508080600101915050610915565b8195505b505050505090565b6000600254905090565b6000809054906101000a900473ffffffffffffffffffffffffffffffffffffffff1681565b60026000815480929190600101919050555060c06040519081016040528060025481526020013373ffffffffffffffffffffffffffffffffffffffff168152602001600073ffffffffffffffffffffffffffffffffffffffff168152602001848152602001838152602001828152506001600060025481526020019081526020016000206000820151816000015560208201518160010160006101000a81548173ffffffffffffffffffffffffffffffffffffffff021916908373ffffffffffffffffffffffffffffffffffffffff16021790555060408201518160020160006101000a81548173ffffffffffffffffffffffffffffffffffffffff021916908373ffffffffffffffffffffffffffffffffffffffff1602179055506060820151816003019080519060200190610ad1929190610d6b565b506080820151816004019080519060200190610aee929190610d6b565b5060a082015181600501559050503373ffffffffffffffffffffffffffffffffffffffff166002547f435e70f0dc3155a3a315273a7ef18006eabafe620cee176dc37c4e015142df9685846040518080602001838152602001828103825284818151815260200191508051906020019080838360005b83811015610b7f578082015181840152602081019050610b64565b50505050905090810190601f168015610bac5780820380516001836020036101000a031916815260200191505b50935050505060405180910390a3505050565b60016020528060005260406000206000915090508060000154908060010160009054906101000a900473ffffffffffffffffffffffffffffffffffffffff16908060020160009054906101000a900473ffffffffffffffffffffffffffffffffffffffff1690806003018054600181600116156101000203166002900480601f016020809104026020016040519081016040528092919081815260200182805460018160011615610100020316600290048015610cbd5780601f10610c9257610100808354040283529160200191610cbd565b820191906000526020600020905b815481529060010190602001808311610ca057829003601f168201915b505050505090806004018054600181600116156101000203166002900480601f016020809104026020016040519081016040528092919081815260200182805460018160011615610100020316600290048015610d5b5780601f10610d3057610100808354040283529160200191610d5b565b820191906000526020600020905b815481529060010190602001808311610d3e57829003601f168201915b5050505050908060050154905086565b828054600181600116156101000203166002900490600052602060002090601f016020900481019282601f10610dac57805160ff1916838001178555610dda565b82800160010185558215610dda579182015b82811115610dd9578251825591602001919060010190610dbe565b5b509050610de79190610deb565b5090565b610e0d91905b80821115610e09576000816000905550600101610df1565b5090565b905600a165627a7a723058208f3973bdc77f7a69316de8131c4361b9ff784c5187e714b66fc2a3e880e5c42e0029",
  "source": "pragma solidity ^0.4.24;\n\nimport \"./Owned.sol\";\n\n\ncontract ChainList is Owned {\n  // custom types\n    struct Article {\n        uint id;\n        address seller;\n        address buyer;\n        string name;\n        string description;\n        uint256 price;\n    }\n\n    // state variables\n    mapping(uint => Article) public articles;\n    uint public articleCounter;\n\n    // events\n    event SellArticleEvent (\n    uint indexed _id,\n    address indexed _seller,\n    string _name,\n    uint256 _price);\n    // event LogSellAtricle(\n    // address indexed _seller,\n    // string _name,\n    // uint256 _price);\n\n    event BuyArticleEvent (\n    uint indexed _id,\n    address indexed _seller,\n    address indexed _buyer,\n    string _name,\n    uint256 _price);\n    // event LogBuyAtricle(\n    // address indexed _seller,\n    // address indexed _buyer,\n    // string _name,\n    // uint256 _price);\n\n  // sell an article\n    function sellArticle(string _name, string _description, uint256 _price) public {\n        // a new article\n        articleCounter++;\n\n        // store this article\n        articles[articleCounter] = Article(\n        articleCounter,\n        msg.sender,\n        0x0,\n        _name,\n        _description,\n        _price);\n\n        // trigger the event\n        SellArticleEvent(articleCounter, msg.sender, _name, _price);\n        // LogSellAtricle(msg.sender, _name, _price);\n    }\n\n  // fetch the number of articles in the contract\n    function getNumberOfArticles() public constant returns (uint) {\n        return articleCounter;\n    }\n\n    // fetch and returns all article IDs available for sale\n    function getArticlesForSale() public constant returns (uint[]) {\n      // we check whether there is at least one article\n        if (articleCounter == 0) {\n            return new uint[](0);\n        }\n\n        // prepare intermediary array\n        uint[] memory articleIds = new uint[](articleCounter);\n\n        uint numberOfArticlesForSale = 0;\n        // iterate over articles\n        for (uint i = 1; i <= articleCounter; i++) {\n          // keep only the ID of articles not sold yet\n            if (articles[i].buyer == 0x0) {\n                articleIds[numberOfArticlesForSale] = articles[i].id;\n                numberOfArticlesForSale++;\n            }\n        }\n\n        // copy the articleIds array into the smaller forSale array\n        uint[] memory forSale = new uint[](numberOfArticlesForSale);\n        for (uint j = 0; j < numberOfArticlesForSale; j++) {\n            forSale[j] = articleIds[j];\n        }\n        return (forSale);\n    }\n\n      // buy an article\n    function buyArticle(uint _id) public payable {\n        // we check whether there is at least one article\n        require(articleCounter > 0);\n\n        // we check whether the article exists\n        require(_id > 0 && _id <= articleCounter);\n\n        // we retrieve the article\n        Article storage article = articles[_id];\n\n        // we check whether the article has not already been sold\n        require(article.buyer == 0x0);\n\n        // we don't allow the seller to buy his/her own article\n        require(article.seller != msg.sender);\n\n        // we check whether the value sent corresponds to the article price\n        require(article.price == msg.value);\n\n        // keep buyer's information\n        article.buyer = msg.sender;\n\n        // the buyer can buy the article\n        article.seller.transfer(msg.value);\n\n        // trigger the event\n        BuyArticleEvent(_id, article.seller, article.buyer, article.name, article.price);\n        // LogBuyAtricle(article.seller, article.buyer, article.name, article.price);\n    }\n\n    // kill the smart contract\n    function kill() public onlyOwner {\n        selfdestruct(owner);\n    }\n}\n",
  "sourcePath": "/Users/joestar/smart-contract/training/chainlist/contracts/ChainList.sol",
  "compiler": {
    "name": "solc",
    "version": "0.4.24+commit.e67f0147.Emscripten.clang"
  },
  "schemaVersion": "2.0.1",
  "updatedAt": "2018-12-12T21:04:02.442Z"
}